:020000040800F2
:10000000008001206D030008BD030008BD03000847
:10001000BD030008BD030008BD0300080000000088
:10002000000000000000000000000000BD03000808
:10003000BD03000800000000BD030008BD03000868
:1000400000000000BD030008BD030008BD03000858
:10005000BD030008BD030008BD030008BD03000880
:10006000BD030008BD030008BD030008BD03000870
:10007000BD030008BD030008BD030008BD03000860
:10008000BD030008BD030008BD0300080000000018
:10009000000000000000000000000000BD03000898
:1000A000BD030008BD030008BD030008BD03000830
:1000B000BD030008BD030008BD030008BD03000820
:1000C000BD030008BD030008BD030008BD03000810
:1000D000BD030008BD030008BD03000800000000C8
:1000E000BD030008BD030008BD03000800000000B8
:1000F000000000000000000000000000BD03000838
:1001000000000000BD030008BD030008BD03000897
:1001100000000000000000000000000000000000DF
:10012000BD030008BD030008BD030008BD030008AF
:10013000BD030008000000000000000000000000F7
:10014000000000000000000000000000BD030008E7
:10015000BD030008BD030008BD030008BD0300087F
:10016000BD030008BD0300080000000000000000FF
:10017000000000000000000000000000000000007F
:10018000000000000000000000000000000000006F
:04019000BD030008A3
:1001940010B5054C237833B9044B13B10448AFF3BD
:1001A40000800123237010BD18000020000000000F
:1001B4000804000808B5034B1BB103490348AFF317
:1001C400008008BD000000001C0000200804000896
:1001D40080B483B000AF0346FB710B46BB7113467A
:1001E4007B71FB79052B25D8BB790F2B22D87B7922
:1001F400032B1FD8FB79124A52F823301968BB79B4
:100204005B00032202FA03F3DA43FB790C4850F84B
:1002140023300A401A60FB79094A52F823301968DE
:100224007A79BB795B009A40FB79054850F8233012
:100234000A431A6000BF0C37BD465DF8047B704763
:100244000000002080B483B000AF0346FB710B466E
:10025400BB7113467B71FB79052B20D8BB790F2B1F
:100264001DD8FB79114A52F823305969BB79012210
:1002740002FA03F3DA43FB790C4850F823300A40BE
:100284005A61FB79094A52F8233059697A79BB7962
:100294009A40FB79054850F823300A435A6100BF5D
:1002A4000C37BD465DF8047B704700BF000000209A
:1002B40080B400AF1D4B1B681C4A43F0010313605C
:1002C4001B4B1B681A4A23F47C4323F0F30313608B
:1002D400174B174A1B681360164B1B68154A43F4E7
:1002E40080631360134B1B68124A43F4E0431360AA
:1002F400104B1B680F4A43F4203313600E4B1B68EA
:100304000D4A43F09F0313600C4B0C4A1B681360A7
:100314000B4B0B4A1B6813600A4B0A4A1B68136099
:1003240000BFBD465DF8047B704700BF0038024043
:100334000438024008380240303802403438024061
:10034400403802404438024080B500AFFFF7B0FFA8
:10035400012205210020FFF73BFF01220521002097
:10036400FFF770FFFEE700000D488546AFF30080FD
:100374000C480D490D4A002302E0D458C4500433FC
:10038400C4188C42F9D30A4A0A4C002301E01360D2
:100394000432A242FBD300F011F8FFF7D5FFFEE7C9
:1003A400008001200000002018000020280400081C
:1003B4001800002034000020FEE7000070B50D4D49
:1003C4000D4C641BA4100026A64209D10B4D0C4C05
:1003D40000F018F8641BA4100026A64205D170BDD5
:1003E40055F8043B98470136EEE755F8043B984727
:1003F4000136F2E720040008200400082004000865
:1004040024040008F8B500BFF8BC08BC9E46704739
:0C041400F8B500BFF8BC08BC9E4670475D
:04042000B901000816
:040424009501000836
:10042800000002400004024000080240000C0240A4
:0804380000100240001C02400C
:040000050800036D7F
:00000001FF
