:020000040800F2
:10000000008001206D080008BD080008BD08000838
:10001000BD080008BD080008BD0800080000000079
:10002000000000000000000000000000BD08000803
:10003000BD08000800000000BD080008BD08000859
:1000400000000000BD080008BD080008BD08000849
:10005000BD080008BD080008BD080008BD0800086C
:10006000BD080008BD080008BD080008BD0800085C
:10007000BD080008BD080008BD080008BD0800084C
:10008000BD080008BD080008BD0800080000000009
:10009000000000000000000000000000BD08000893
:1000A000BD080008BD080008BD080008BD0800081C
:1000B000BD080008BD080008BD080008BD0800080C
:1000C000BD080008BD080008BD080008BD080008FC
:1000D000BD080008BD080008BD08000800000000B9
:1000E000BD080008BD080008BD08000800000000A9
:1000F000000000000000000000000000BD08000833
:1001000000000000BD080008BD080008BD08000888
:1001100000000000000000000000000000000000DF
:10012000BD080008BD080008BD080008BD0800089B
:10013000BD080008000000000000000000000000F2
:10014000000000000000000000000000BD080008E2
:10015000BD080008BD080008BD080008BD0800086B
:10016000BD080008BD0800080000000000000000F5
:10017000000000000000000000000000000000007F
:10018000000000000000000000000000000000006F
:04019000BD0800089E
:1001940010B5054C237833B9044B13B10448AFF3BD
:1001A40000800123237010BD200000200000000007
:1001B4000809000808B5034B1BB103490348AFF312
:1001C400008008BD00000000240000200809000889
:1001D40080B483B000AF0346FB710B46BB7113467A
:1001E4007B71FB79052B25D8BB790F2B22D87B7922
:1001F400032B1FD8FB79124A52F823301968BB79B4
:100204005B00032202FA03F3DA43FB790C4850F84B
:1002140023300A401A60FB79094A52F823301968DE
:100224007A79BB795B009A40FB79054850F8233012
:100234000A431A6000BF0C37BD465DF8047B704763
:100244000000002080B483B000AF0346FB710B466E
:10025400BB7113467B71FB79052B20D8BB790F2B1F
:100264001DD8FB79114A52F823305969BB79012210
:1002740002FA03F3DA43FB790C4850F823300A40BE
:100284005A61FB79094A52F8233059697A79BB7962
:100294009A40FB79054850F823300A435A6100BF5D
:1002A4000C37BD465DF8047B704700BF000000209A
:1002B40080B586B000AF0346FB7101220221002005
:1002C400FFF7C0FF002201210020FFF7BBFF00233E
:1002D400FB7502E0FB7D0133FB75FB7D052BF9D932
:1002E400012200210020FFF7ADFF0023BB7502E0CF
:1002F400BB7D0133BB75BB7D052BF9D904237B750D
:1003040012E0FA797B7D42FA03F3DBB203F00103D6
:10031400FB737B7D2E4AD35CFA7B19460020FFF7E2
:1003240091FF7B7D01337B757B7D072BE9D900230E
:100334003B7502E03B7D01333B753B7D052BF9D9D1
:10034400002200210020FFF77DFF0023FB7402E060
:10035400FB7C0133FB74FB7C362BF9D90122002191
:100364000020FFF76FFF0023BB7402E0BB7C013366
:10037400BB74BB7C052BF9D904237B7413E0FA7995
:100384007B7C043B42FA03F3DBB203F00103FB730F
:100394007B7C0F4AD35CFA7B19460020FFF752FF9F
:1003A4007B7C01337B747B7C072BE8D900233B7473
:1003B40002E03B7C01333B743B7C052BF9D90022E2
:1003C40000210020FFF73EFF00BF1837BD4680BD67
:1003D4001800002080B586B000AF0346FB710022F0
:1003E40002210020FFF72EFF002201210020FFF749
:1003F40029FF0023FB7502E0FB7D0133FB75FB7DC8
:10040400052BF9D9012200210020FFF71BFF00234F
:10041400BB7502E0BB7D0133BB75BB7D052BF9D9F0
:1004240004237B7512E0FA797B7D42FA03F3DBB295
:1004340003F00103FB737B7D2E4AD35CFA7B1946E0
:100444000020FFF7FFFE7B7D01337B757B7D072B4F
:10045400E9D900233B7502E03B7D01333B753B7DCD
:10046400052BF9D9002200210020FFF7EBFE002321
:10047400FB7402E0FB7C0133FB74FB7C362BF9D963
:10048400012200210020FFF7DDFE0023BB7402E0FF
:10049400BB7C0133BB74BB7C052BF9D904237B746F
:1004A40013E0FA797B7C043B42FA03F3DBB203F0FA
:1004B4000103FB737B7C0F4AD35CFA7B1946002053
:1004C400FFF7C0FE7B7C01337B747B7C072BE8D970
:1004D40000233B7402E03B7C01333B743B7C052BE3
:1004E400F9D9002200210020FFF7ACFE00BF183725
:1004F400BD4680BD1800002080B584B000AF002246
:1005040002210020FFF79EFE002201210020FFF7B8
:1005140099FE0023FB7302E0FB7B0133FB73FB7B3F
:10052400052BF9D9012200210020FFF78BFE0023BF
:10053400BB7302E0BB7B0133BB73BB7B052BF9D9D7
:1005440000237B7313E07B7B022242FA03F3DBB2CA
:1005540003F00103FB707B7B04334E4AD35CFA78CF
:1005640019460020FFF76EFE7B7B01337B737B7B98
:10057400032BE8D9002200210020FFF763FE0023AB
:100584003B7302E03B7B01333B733B7B362BF9D956
:10059400012200210020FFF755FE0023FB7202E038
:1005A400FB7A0133FB72FB7A052BF9D90023BB726A
:1005B40013E0BB7A022242FA03F3DBB203F0010335
:1005C400FB70BB7A0433334AD35CFA7819460020B3
:1005D400FFF738FEBB7A0133BB72BB7A032BE8D931
:1005E40000237B7202E07B7A01337B727B7A052BDA
:1005F400F9D9002200210020FFF724FE00233B72DA
:1006040002E03B7A01333B723B7A362BF9D9012263
:1006140000210020FFF716FE0023FB7102E0FB79A6
:100624000133FB71FB79052BF9D90023BB7112E06F
:10063400BB79082242FA03F3DBB203F00103FB7037
:10064400BB790433DBB2FA7819460020FFF7FAFDD0
:10065400BB790133BB71BB79032BE9D900237B71CF
:1006640002E07B7901337B717B79052BF9D9002278
:1006740000210020FFF7E6FD00233B7102E03B79F7
:1006840001333B713B79362BF9D900BF00BF1037DA
:10069400BD4680BD1800002080B584B000AF04239F
:1006A400FB730AE0FB7B284AD35C01221946002035
:1006B400FFF78EFDFB7B0133FB73FB7B072BF1D92B
:1006C400012200210020FFF783FD012201210020E7
:1006D400FFF77EFD012202210020FFF779FD0023B0
:1006E400BB6002E0BB680133BB60BB68174A93423E
:1006F400F8D9FFF701FF0023FB7102E0FB79013316
:10070400FB71FB79362BF9D90C20FFF763FE00232C
:10071400BB7102E0BB790133BB71BB79362BF9D9CC
:100724000120FFF757FE00233B6002E03B680133E2
:100734003B603B6842F6AB129342F7D900BF00BF5F
:100744001037BD4680BD00BF18000020AB11040067
:1007540080B584B000AF0346FB71FB791846FFF700
:10076400A7FD0023FB7302E0FB7B0133FB73FB7BE0
:10077400362BF9D900BF00BF1037BD4680BD80B508
:1007840084B000AF78600023FB7309E0FB7B7A68D8
:1007940013441B781846FFF7DBFFFB7B0133FB7325
:1007A400FB7B7A6813441B78002BEFD100BF00BF9A
:1007B4001037BD4680BD000080B400AF1D4B1B68E0
:1007C4001C4A43F0010313601B4B1B681A4A23F4B1
:1007D4007C4323F0F3031360174B174A1B68136021
:1007E400164B1B68154A43F480631360134B1B6854
:1007F400124A43F4E0431360104B1B680F4A43F45E
:10080400203313600E4B1B680D4A43F00103136041
:100814000C4B0C4A1B6813600B4B0B4A1B68136090
:100824000A4B0A4A1B68136000BFBD465DF8047B8F
:10083400704700BF003802400438024008380240C4
:1008440030380240343802404038024044380240D4
:1008540080B500AFFFF7B0FFFFF71EFF0148FFF7B9
:100864008EFFFEE7200900080D488546AFF300809F
:100874000C480D490D4A002302E0D458C4500433F7
:10088400C4188C42F9D30A4A0A4C002301E01360CD
:100894000432A242FBD300F011F8FFF7D9FFFEE7C0
:1008A40000800120000000202000002038090008FA
:1008B400200000203C000020FEE7000070B50D4D34
:1008C4000D4C641BA4100026A64209D10B4D0C4C00
:1008D40000F018F8641BA4100026A64205D170BDD0
:1008E40055F8043B98470136EEE755F8043B984722
:1008F4000136F2E730090008300900083009000821
:1009040034090008F8B500BFF8BC08BC9E4670471F
:0C091400F8B500BFF8BC08BC9E46704758
:1009200048656C6C6F20576F726C6421000000008A
:04093000B901000801
:040934009501000821
:10093800000002400004024000080240000C02408F
:1009480000100240001C0240030405060708090ABB
:040000050800086D7A
:00000001FF
