:020000040800F2
:1000000000800120DD0500082D0600082D060008EF
:100010002D0600082D0600082D060008000000002F
:100020000000000000000000000000002D06000895
:100030002D060008000000002D0600082D0600080F
:10004000000000002D0600082D0600082D060008FF
:100050002D0600082D0600082D0600082D060008B4
:100060002D0600082D0600082D0600082D060008A4
:100070002D0600082D0600082D0600082D06000894
:100080002D0600082D0600082D06000800000000BF
:100090000000000000000000000000002D06000825
:1000A0002D0600082D0600082D0600082D06000864
:1000B0002D0600082D0600082D0600082D06000854
:1000C0002D0600082D0600082D0600082D06000844
:1000D0002D0600082D0600082D060008000000006F
:1000E0002D0600082D0600082D060008000000005F
:1000F0000000000000000000000000002D060008C5
:10010000000000002D0600082D0600082D0600083E
:1001100000000000000000000000000000000000DF
:100120002D0600082D0600082D0600082D060008E3
:100130002D06000800000000000000000000000084
:100140000000000000000000000000002D06000874
:100150002D0600082D0600082D0600082D060008B3
:100160002D0600082D060008000000000000000019
:10017000000000000000000000000000000000007F
:10018000000000000000000000000000000000006F
:040190002D06000830
:1001940010B5054C237833B9044B13B10448AFF3BD
:1001A40000800123237010BD18000020000000000F
:1001B4007806000808B5034B1BB103490348AFF3A5
:1001C400008008BD000000001C0000207806000824
:1001D40080B584B000AF78600023FB731EE07B68B9
:1001E4001B78C3F30203DBB21846FB7B7A68134423
:1001F4005B780122194600F0A7F87B681B78C3F3EB
:100204000203DBB21846FB7B7A6813445B78002256
:10021400194600F0D3F8FB7B0133FB73FB7B062B01
:10022400DDD900BF00BF1037BD4680BD80B58AB0A0
:1002340000AF7860424A07F1180307CA03C31A8063
:10024400404A07F10C0307CA03C31A807B681B7872
:10025400C3F3C003DBB2002B02D0012B36D06BE01A
:100264007B681B78C3F30313DBB287F825300023C4
:1002740087F8273025E097F827307A6813445B78AD
:1002840087F824307B681B78C3F30203DBB218467B
:1002940097F8253028333B4413F8103C1A4697F856
:1002A400273042FA03F3DBB203F00103DAB297F822
:1002B4002430194600F0BEF897F82730013387F848
:1002C400273097F82730062BD5D935E07B681B7883
:1002D400C3F30313DBB287F82530002387F82630F5
:1002E40025E097F826307A6813445B7887F8243041
:1002F4007B681B78C3F30203DBB2184697F82530FA
:1003040028333B4413F81C3C1A4697F8263042FA2B
:1003140003F3DBB203F00103DAB297F82430194691
:1003240000F088F897F82630013387F8263097F8DC
:100334002630062BD5D900BF00BF2837BD4680BD67
:10034400900600089C06000880B483B000AF034602
:10035400FB710B46BB7113467B71FB79052B25D8CA
:10036400BB790F2B22D87B79032B1FD8FB79124A38
:1003740052F823301968BB795B00032202FA03F3B5
:10038400DA43FB790C4850F823300A401A60FB79B1
:10039400094A52F8233019687A79BB795B009A408C
:1003A400FB79054850F823300A431A6000BF0C3724
:1003B400BD465DF8047B70470000002080B483B024
:1003C40000AF0346FB710B46BB7113467B71FB798F
:1003D400052B27D8BB790F2B24D87B79002B11D17F
:1003E400FB79134A52F823305A68BB79012101FA88
:1003F40003F3DB431846FB790D4951F823300240DF
:100404005A600FE0FB790A4A52F823305A68BB79E4
:10041400012101FA03F31846FB79054951F8233009
:1004240002435A6000BF0C37BD465DF8047B704739
:100434000000002080B483B000AF0346FB710B467C
:10044400BB7113467B71FB79052B20D8BB790F2B2D
:100454001DD8FB79114A52F823305969BB7901221E
:1004640002FA03F3DA43FB790C4850F823300A40CC
:100474005A61FB79094A52F8233059697A79BB7970
:100484009A40FB79054850F823300A435A6100BF6B
:100494000C37BD465DF8047B704700BF00000020A8
:1004A40080B400AF1D4B1B681C4A43F0010313606A
:1004B4001B4B1B681A4A23F47C4323F0F303136099
:1004C400174B174A1B681360164B1B68154A43F4F5
:1004D40080631360134B1B68124A43F4E0431360B8
:1004E400104B1B680F4A43F4203313600E4B1B68F8
:1004F4000D4A43F0030313600C4B0C4A1B68136052
:100504000B4B0B4A1B6813600A4B0A4A1B681360A7
:1005140000BFBD465DF8047B704700BF0038024051
:10052400043802400838024030380240343802406F
:10053400403802404438024080B586B000AF0723FB
:10054400FB753B7B6FF302033B733B7B6FF3C3038E
:100554003B73FB7D03F00F03DAB23B7B62F30713BB
:100564003B731B4A07F10D03106818609188927958
:1005740099809A713B796FF302033B713B7943F0A5
:1005840008033B71FB7D03F00F03DAB23B7962F39E
:1005940007133B710F4A7B1D10681860918892798C
:1005A40099809A71FFF77CFF07F10C031846FFF757
:1005B4000FFE3B1D1846FFF70BFE07F10C03184610
:1005C400FFF734FE3B1D1846FFF730FEFEE700BF81
:1005D400A8060008B00600080D488546AFF3008061
:1005E4000C480D490D4A002302E0D458C45004338A
:1005F400C4188C42F9D30A4A0A4C002301E0136060
:100604000432A242FBD300F011F8FFF795FFFEE796
:10061400008001200000002018000020C00600080F
:100624001800002034000020FEE7000070B50D4DD6
:100634000D4C641BA4100026A64209D10B4D0C4C92
:1006440000F018F8641BA4100026A64205D170BD62
:1006540055F8043B98470136EEE755F8043B9847B4
:100664000136F2E7B8060008B8060008B806000824
:10067400BC060008F8B500BFF8BC08BC9E4670472D
:0C068400F8B500BFF8BC08BC9E467047EB
:10069000014F12064C24200F000400007E306D79BB
:1006A000335B5F707F7B00000001020304050600DE
:0806B0000708090A0B0C0D00FC
:0406B800B90100087C
:0406BC00950100089C
:1006C000000002400004024000080240000C02400A
:0806D00000100240001C024072
:04000005080005DD0D
:00000001FF
